{
  "contractName": "Lottery",
  "abi": [
    {
      "constant": true,
      "inputs": [],
      "name": "owner",
      "outputs": [
        {
          "name": "",
          "type": "address"
        }
      ],
      "payable": false,
      "stateMutability": "view",
      "type": "function",
      "signature": "0x8da5cb5b"
    },
    {
      "inputs": [],
      "payable": false,
      "stateMutability": "nonpayable",
      "type": "constructor",
      "signature": "constructor"
    },
    {
      "constant": true,
      "inputs": [],
      "name": "getSomeValue",
      "outputs": [
        {
          "name": "value",
          "type": "uint256"
        }
      ],
      "payable": false,
      "stateMutability": "pure",
      "type": "function",
      "signature": "0xa40674b7"
    }
  ],
  "bytecode": "0x608060405234801561001057600080fd5b50336000806101000a81548173ffffffffffffffffffffffffffffffffffffffff021916908373ffffffffffffffffffffffffffffffffffffffff160217905550610124806100606000396000f3fe6080604052600436106049576000357c0100000000000000000000000000000000000000000000000000000000900463ffffffff1680638da5cb5b14604e578063a40674b71460a2575b600080fd5b348015605957600080fd5b50606060ca565b604051808273ffffffffffffffffffffffffffffffffffffffff1673ffffffffffffffffffffffffffffffffffffffff16815260200191505060405180910390f35b34801560ad57600080fd5b5060b460ef565b6040518082815260200191505060405180910390f35b6000809054906101000a900473ffffffffffffffffffffffffffffffffffffffff1681565b6000600590509056fea165627a7a72305820d90dbc04014cd0f1a00fb7041b98744296a3163d56dc0fcc7a02f0da8ccee41f0029",
  "source": "pragma solidity >=0.4.22 <0.9.0;\r\n\r\ncontract Lottery {\r\n    // contract 생성 후 truffle compile 하면 컴파일이 되고 컴파일 하게되면 build가 생성됨 (json 파일) \r\n    // json 파일 내 - bytecode 블록체인 네트워크에 배포될 때 사용되는 바이트 코드\r\n    \r\n    address public owner; // 주소를 owner로 설정 // public으로 만들게 되면 자동으로 getter를 만들어 줌 // 외부에서 owner 값을 확인할 수 있게 됨\r\n\r\n    constructor() public {\r\n        owner = msg.sender;\r\n    }\r\n\r\n    function getSomeValue() public pure returns (uint256 value) {\r\n        return 5;\r\n    }\r\n}\r\n",
  "sourcePath": "C:/project/Blockchain/lottery-smart-contract/contracts/Lottery.sol",
  "compiler": {
    "name": "solc",
    "version": "0.5.0+commit.1d4f565a.Emscripten.clang"
  },
  "schemaVersion": "3.0.1",
  "updatedAt": "2022-02-14T07:28:06.459Z",
  "devdoc": {
    "methods": {}
  },
  "userdoc": {
    "methods": {}
  }
}