{
  "contractName": "Lottery",
  "abi": [
    {
      "constant": true,
      "inputs": [],
      "name": "owner",
      "outputs": [
        {
          "name": "",
          "type": "address"
        }
      ],
      "payable": false,
      "stateMutability": "view",
      "type": "function"
    },
    {
      "inputs": [],
      "payable": false,
      "stateMutability": "nonpayable",
      "type": "constructor"
    },
    {
      "anonymous": false,
      "inputs": [
        {
          "indexed": false,
          "name": "index",
          "type": "uint256"
        },
        {
          "indexed": false,
          "name": "bettor",
          "type": "address"
        },
        {
          "indexed": false,
          "name": "amount",
          "type": "uint256"
        },
        {
          "indexed": false,
          "name": "challenges",
          "type": "bytes1"
        },
        {
          "indexed": false,
          "name": "answerBlockNumber",
          "type": "uint256"
        }
      ],
      "name": "BET",
      "type": "event"
    },
    {
      "constant": true,
      "inputs": [],
      "name": "getPot",
      "outputs": [
        {
          "name": "pot",
          "type": "uint256"
        }
      ],
      "payable": false,
      "stateMutability": "view",
      "type": "function"
    },
    {
      "constant": false,
      "inputs": [
        {
          "name": "challenges",
          "type": "bytes1"
        }
      ],
      "name": "bet",
      "outputs": [
        {
          "name": "result",
          "type": "bool"
        }
      ],
      "payable": true,
      "stateMutability": "payable",
      "type": "function"
    },
    {
      "constant": true,
      "inputs": [
        {
          "name": "index",
          "type": "uint256"
        }
      ],
      "name": "getBetInfo",
      "outputs": [
        {
          "name": "answerBlockNumber",
          "type": "uint256"
        },
        {
          "name": "bettor",
          "type": "address"
        },
        {
          "name": "challenges",
          "type": "bytes1"
        }
      ],
      "payable": false,
      "stateMutability": "view",
      "type": "function"
    }
  ],
  "bytecode": "0x608060405234801561001057600080fd5b5033600360006101000a81548173ffffffffffffffffffffffffffffffffffffffff021916908373ffffffffffffffffffffffffffffffffffffffff1602179055506106ca806100616000396000f3fe60806040526004361061003f5760003560e01c8063403c9fa81461004457806379141f801461006f5780638da5cb5b1461013c578063f4b46f5b14610193575b600080fd5b34801561005057600080fd5b506100596101fb565b6040518082815260200191505060405180910390f35b34801561007b57600080fd5b506100a86004803603602081101561009257600080fd5b8101908080359060200190929190505050610205565b604051808481526020018373ffffffffffffffffffffffffffffffffffffffff1673ffffffffffffffffffffffffffffffffffffffff168152602001827effffffffffffffffffffffffffffffffffffffffffffffffffffffffffffff19167effffffffffffffffffffffffffffffffffffffffffffffffffffffffffffff19168152602001935050505060405180910390f35b34801561014857600080fd5b5061015161030a565b604051808273ffffffffffffffffffffffffffffffffffffffff1673ffffffffffffffffffffffffffffffffffffffff16815260200191505060405180910390f35b6101e1600480360360208110156101a957600080fd5b8101908080357effffffffffffffffffffffffffffffffffffffffffffffffffffffffffffff19169060200190929190505050610330565b604051808215151515815260200191505060405180910390f35b6000600454905090565b6000806000610212610645565b60026000868152602001908152602001600020604051806060016040529081600082015481526020016001820160009054906101000a900473ffffffffffffffffffffffffffffffffffffffff1673ffffffffffffffffffffffffffffffffffffffff1673ffffffffffffffffffffffffffffffffffffffff1681526020016001820160149054906101000a900460f81b7effffffffffffffffffffffffffffffffffffffffffffffffffffffffffffff19167effffffffffffffffffffffffffffffffffffffffffffffffffffffffffffff1916815250509050806000015193508060200151925080604001519150509193909250565b600360009054906101000a900473ffffffffffffffffffffffffffffffffffffffff1681565b60006611c37937e0800034146103ae576040517f08c379a000000000000000000000000000000000000000000000000000000000815260040180806020018281038252600f8152602001807f4e6f7420656e6f7567682045544821000000000000000000000000000000000081525060200191505060405180910390fd5b6103b782610501565b610429576040517f08c379a000000000000000000000000000000000000000000000000000000000815260040180806020018281038252601b8152602001807f4661696c20746f206164642061206e65772042657420496e666f2e000000000081525060200191505060405180910390fd5b7f100791de9f40bf2d56ffa6dc5597d2fd0b2703ea70bc7548cd74c04f5d215ab760016000540333348560034301604051808681526020018573ffffffffffffffffffffffffffffffffffffffff1673ffffffffffffffffffffffffffffffffffffffff168152602001848152602001837effffffffffffffffffffffffffffffffffffffffffffffffffffffffffffff19167effffffffffffffffffffffffffffffffffffffffffffffffffffffffffffff191681526020018281526020019550505050505060405180910390a160019050919050565b600061050b610645565b33816020019073ffffffffffffffffffffffffffffffffffffffff16908173ffffffffffffffffffffffffffffffffffffffff1681525050600343018160000181815250508281604001907effffffffffffffffffffffffffffffffffffffffffffffffffffffffffffff191690817effffffffffffffffffffffffffffffffffffffffffffffffffffffffffffff1916815250508060026000805481526020019081526020016000206000820151816000015560208201518160010160006101000a81548173ffffffffffffffffffffffffffffffffffffffff021916908373ffffffffffffffffffffffffffffffffffffffff16021790555060408201518160010160146101000a81548160ff021916908360f81c021790555090505060008081548092919060010191905055506001915050919050565b604051806060016040528060008152602001600073ffffffffffffffffffffffffffffffffffffffff16815260200160007effffffffffffffffffffffffffffffffffffffffffffffffffffffffffffff19168152509056fea165627a7a72305820e91b0df37768b9d82bbfd90b78275c688389b3e81a646bfa9cef4f0c752463da0029",
  "source": "pragma solidity >=0.5.0 <0.9.0;\r\n\r\ncontract Lottery {\r\n    struct BetInfo {\r\n        uint256 answerBlockNumber; // 맞추려고 하는 정답 block\r\n        address payable bettor; // 0.4.24? 이후 부터는 특정 주소에 돈을 보내려면 payable이라는 수식어를 붙여줘야 함 아니면 transfer 불가능\r\n        bytes1 challenges; // byte 사라짐  => bytes1 https://docs.soliditylang.org/en/v0.8.3/080-breaking-changes.html#silent-changes-of-the-semantics\r\n\r\n    }\r\n\r\n    uint256 private _tail;\r\n    uint256 private _head;\r\n    mapping (uint256 => BetInfo) private _bets; //_bets라는 Queue 생성\r\n\r\n    // contract 생성 후 truffle compile 하면 컴파일이 되고 컴파일 하게되면 build가 생성됨 (json 파일) \r\n    // json 파일 내 - bytecode 블록체인 네트워크에 배포될 때 사용되는 바이트 코드\r\n    address public owner; // 주소를 owner로 설정 // public으로 만들게 되면 자동으로 getter를 만들어 줌 // 외부에서 owner 값을 확인할 수 있게 됨\r\n    // constructor는 스마트 컨트랙트가 생성될 때 가장 먼저 실행되는 함수 (배포가 될 때 보낸 사람으로 owner를 저장하겠다)\r\n\r\n    // 상수 정의\r\n    uint256 constant internal BLOCK_LIMIT = 256;\r\n    uint256 constant internal BET_BLOCK_INTERVAL = 3;\r\n    uint256 constant internal BET_AMOUNT = 5 * 10 ** 15; // 배팅 금액 0.005이더로 고정\r\n    // 18승 = 1이더 / 17 = 0.1 / 16 = 0.01 / 15 = 0.001\r\n    uint256 private _pot;\r\n\r\n    event BET(uint256 index, address bettor, uint256 amount, bytes1 challenges, uint256 answerBlockNumber);\r\n    \r\n    constructor() public {\r\n        owner = msg.sender;\r\n    }\r\n\r\n    function getPot() public view returns (uint256 pot) {\r\n        return _pot;\r\n    }\r\n\r\n    // Bet (베팅)\r\n    /*\r\n     * @dev 베팅을 한다. 유저는 0.005 ETH를 보내야 하고, 베팅용 1 byte 글자를 보낸다.\r\n     * 큐에 저장된 베팅 정보는 이후 distribute 함수에서 해결된다.\r\n     * @param challenges 유저가 베팅하는 글자\r\n     * @return 함수가 잘 수행되었는지 확인하는 bool 값\r\n     */\r\n    function bet(bytes1 challenges) public payable returns (bool result) {\r\n        // check the proper ether is sent\r\n        require(msg.value == BET_AMOUNT, \"Not enough ETH!\");\r\n\r\n        // push bet to the queue\r\n        require(pushBet(challenges), \"Fail to add a new Bet Info.\");\r\n\r\n        // emit event\r\n        emit BET(_tail - 1, msg.sender, msg.value, challenges, block.number + BET_BLOCK_INTERVAL);\r\n\r\n        return true;\r\n    }\r\n        // save the bet to the queue (값을 저장)\r\n    \r\n    // Distribute (검증)\r\n        // check the answer (결과값을 검증)\r\n        // 틀리면 pot 머니에 넣고 맞으면 돌려주는 연산\r\n\r\n    function getBetInfo(uint256 index) public view returns (uint256 answerBlockNumber, address bettor, bytes1 challenges) {\r\n        BetInfo memory b = _bets[index];\r\n        answerBlockNumber = b.answerBlockNumber;\r\n        bettor = b.bettor;\r\n        challenges = b.challenges;\r\n    }\r\n\r\n    function pushBet(bytes1 challenges) internal returns (bool) {\r\n        BetInfo memory b;\r\n        b.bettor = msg.sender; // msg.sender 나 block.number // solidity readdoc 에 가면 확인할 수 있음\r\n        // msg.sender (address): 메세지 발신자 (현재 호출)\r\n        b.answerBlockNumber = block.number + BET_BLOCK_INTERVAL; // https://solidity-kr.readthedocs.io/ko/latest/units-and-global-variables.html\r\n        // block.number (uint): 현재 블록 번호\r\n        b.challenges = challenges;\r\n\r\n        _bets[_tail] = b;\r\n        _tail++;\r\n\r\n        return true;\r\n    }\r\n\r\n    function popBet(uint256 index) internal returns (bool) {\r\n        // pop을 할 때 매핑이기 때문에 list에서 삭제하기 보다는\r\n        // 단순하게 값을 초기화 하는 방식으로 진행\r\n        // 맵에 있는 값을 delete 하게 되면 가스를 돌려받게 됨\r\n        // 스마트 컨트랙트에서 코드를 실행할 때 사용하는 단위는 가스 \r\n        // delete를 하게되면 데이터를 더이상 저장하지 않겠다 는 뜻 \r\n        // statedatabase 상태데이터베이스에 저장하고 있는 값들을 그냥 뽑아오겠다. 없애겠다 라는 뜻이기 때문에 가스를 돌려받음\r\n        // 필요하지 않는 값에 대해서는 delete를 해주는 것이 좋음\r\n        delete _bets[index];\r\n        return true;\r\n    }\r\n        \r\n}\r\n",
  "sourcePath": "D:\\code\\lottery-smart-contract\\contracts\\Lottery.sol",
  "compiler": {
    "name": "solc",
    "version": "0.5.7+commit.6da8b019.Emscripten.clang"
  },
  "schemaVersion": "3.4.11",
  "updatedAt": "2022-12-20T09:08:59.385Z",
  "devdoc": {
    "methods": {}
  },
  "userdoc": {
    "methods": {}
  }
}