{
  "contractName": "Migrations",
  "abi": [
    {
      "constant": true,
      "inputs": [],
      "name": "last_completed_migration",
      "outputs": [
        {
          "name": "",
          "type": "uint256"
        }
      ],
      "payable": false,
      "stateMutability": "view",
      "type": "function"
    },
    {
      "constant": true,
      "inputs": [],
      "name": "owner",
      "outputs": [
        {
          "name": "",
          "type": "address"
        }
      ],
      "payable": false,
      "stateMutability": "view",
      "type": "function"
    },
    {
      "constant": false,
      "inputs": [
        {
          "name": "completed",
          "type": "uint256"
        }
      ],
      "name": "setCompleted",
      "outputs": [],
      "payable": false,
      "stateMutability": "nonpayable",
      "type": "function"
    }
  ],
  "bytecode": "0x6080604052336000806101000a81548173ffffffffffffffffffffffffffffffffffffffff021916908373ffffffffffffffffffffffffffffffffffffffff16021790555034801561005057600080fd5b50610264806100606000396000f3fe608060405260043610610057576000357c0100000000000000000000000000000000000000000000000000000000900463ffffffff168063445df0ac1461005c5780638da5cb5b14610087578063fdacd576146100de575b600080fd5b34801561006857600080fd5b50610071610119565b6040518082815260200191505060405180910390f35b34801561009357600080fd5b5061009c61011f565b604051808273ffffffffffffffffffffffffffffffffffffffff1673ffffffffffffffffffffffffffffffffffffffff16815260200191505060405180910390f35b3480156100ea57600080fd5b506101176004803603602081101561010157600080fd5b8101908080359060200190929190505050610144565b005b60015481565b6000809054906101000a900473ffffffffffffffffffffffffffffffffffffffff1681565b6000809054906101000a900473ffffffffffffffffffffffffffffffffffffffff1673ffffffffffffffffffffffffffffffffffffffff163373ffffffffffffffffffffffffffffffffffffffff1614151561022e576040517f08c379a00000000000000000000000000000000000000000000000000000000081526004018080602001828103825260338152602001807f546869732066756e6374696f6e206973207265737472696374656420746f207481526020017f686520636f6e74726163742773206f776e65720000000000000000000000000081525060400191505060405180910390fd5b806001819055505056fea165627a7a72305820796af224825a889b31781dce93198e206666d73a47bf77e3fcbc3b6c7a18aa0b0029",
  "source": "// SPDX-License-Identifier: MIT\n// Migrations.sol 파일의 역할 = > 이 스마트 컨트랙트의 버전 관리를 해주는 역할\n// truffle에서 사용하는 tool or contract \n// 내가 몇번째 deployment script까지 사용했는지 확인할 수 있음\n// truffle 구조에서는 프로젝트와 deep 하게 연결되기 때문에 건드리지 않는 것이 좋음\npragma solidity >=0.4.22 <0.9.0;\n\ncontract Migrations {\n  address public owner = msg.sender;\n  uint public last_completed_migration;\n\n  modifier restricted() {\n    require(\n      msg.sender == owner,\n      \"This function is restricted to the contract's owner\"\n    );\n    _;\n  }\n\n  function setCompleted(uint completed) public restricted { // uint completed 이 숫자가 migrations 안에 있는 파일들의 1,2,3... 숫자들과 매핑됨\n    last_completed_migration = completed;\n  }\n}\n",
  "sourcePath": "C:/project/Blockchain/lottery-smart-contract/contracts/Migrations.sol",
  "compiler": {
    "name": "solc",
    "version": "0.5.0+commit.1d4f565a.Emscripten.clang"
  },
  "schemaVersion": "3.0.1",
  "updatedAt": "2022-02-14T07:28:06.459Z",
  "devdoc": {
    "methods": {}
  },
  "userdoc": {
    "methods": {}
  }
}